S01400004652444D2D5446432D575752332E686578E5
S11300000030002005350000A9340000A9340000A8
S113001000000000000000000000000000000000DC
S1130020000000000000000000000000A9340000EF
S11300300000000000000000A9340000514F00003F
S1130040A9340000A9340000A9340000A934000038
S1130050A9340000A9340000A9340000A934000028
S1130060A9340000A9340000A9340000A934000018
S113007009370000A9340000A9340000055300002A
S1130080A9340000A934000071410000A934000023
S1130090A9340000A9340000C5520000A9340000AE
S11300A0A9340000A9340000A9340000A9340000D8
S11300B0A9340000A9340000A9340000A9340000C8
S113080002B4714649084900095649008E4402BCA5
S11308107047C04602B4714649084900095C490062
S11308208E4402BC7047C046002934D00123002204
S113083010B488422CD301242407A14204D281425B
S113084002D209011B01F8E7E400A14204D281426B
S113085002D249005B00F8E7884201D3401A1A43E8
S11308604C08A04202D3001B5C0822438C08A0421F
S113087002D3001B9C082243CC08A04202D3001BD5
S1130880DC082243002803D01B0901D00909E3E74F
S1130890101C10BC7047002801D00020C04307B4CE
S11308A0024802A14018029003BDC046D9000000CE
S11308B00029F0D003B5FFF7B9FF0EBC4243891AF3
S11308C01847C046002941D010B4041C4C40A4462B
S11308D001230022002900D54942002800D54042C6
S11308E088422CD301242407A14204D2814202D29B
S11308F009011B01F8E7E400A14204D2814202D2BB
S113090049005B00F8E7884201D3401A1A434C08B7
S1130910A04202D3001B5C0822438C08A04202D3ED
S1130920001B9C082243CC08A04202D3001BDC0815
S11309302243002803D01B0901D00909E3E7101C56
S11309406446002C00D5404210BC7047002806D0F5
S113095003DB0020C043400801E08020000607B408
S1130960024802A14018029003BDC04619000000CD
S11309700029EBD003B5FFF7A7FF0EBC4243891A49
S11309801847C0467047C0468446101C62468C46D1
S1130990191C634600E0C0461FB501F07FFD002826
S11309A001D40021C8421FBD10B501F0C5FC40426E
S11309B0013010BD10B501F071FD002801DB0020ED
S11309C010BD012010BDC04610B501F067FD002820
S11309D001DD002010BD012010BDC04610B501F09E
S11309E0E9FC002801DC002010BD012010BDC04638
S11309F010B501F0DFFC002801DA002010BD012051
S1130A0010BDC0468446081C6146FFE71FB500F0D0
S1130A10F5F9002801D40021C8421FBD10B500F02B
S1130A207DF94042013010BD10B500F0E7F900280F
S1130A3001DB002010BD012010BDC04610B500F040
S1130A40DDF9002801DD002010BD012010BDC046E5
S1130A5010B500F08BF9002801DC002010BD012046
S1130A6010BDC04610B500F081F9002801DA00205D
S1130A7010BD012010BDC0469E2110B5C905041C3F
S1130A80FFF7F0FF002803D1201C00F005FD10BD86
S1130A909E22201CD10500F029FB00F0FDFC8023E0
S1130AA01C060019F3E7C046F0B55F4656464D46AE
S1130AB04446F0B44502440083B00E1C6D0A240E73
S1130AC0C70F002C07D1002D00D091E00421012292
S1130AD08846924609E0FF2C55D080231804002153
S1130AE00543ED007F3C88468A46331C5800760255
S1130AF0D90F760A000E8B464CD101229446002E63
S1130B0000D081E05B467B406246414601930A4344
S1130B100F2A50D9201A690181467501A94200D3D0
S1130B20B3E00122534299441B2400260127621E8C
S1130B30381C10404B007600002900DAA9E09D42E1
S1130B4000D8A6E0013C002C00DCABE000280CD06F
S1130B50191C76005B00002901DB9D4201D85B1B58
S1130B603E43013C002C00DC9CE059007200002B49
S1130B7001DB8D4201D8491B3A43013C4B0056002E
S1130B800029EADAEBE7002D2DD108200221804666
S1130B908A46AAE7FF2820D08022130400211E439E
S1130BA08C465B467B4062464146F6007F380193A3
S1130BB00A430F2AAED8564992008A589746019B99
S1130BC0FF260025F0052843DE07304303B03CBC74
S1130BD090469946A246AB46F0BD331C5A1E93413B
S1130BE002339C468EE70C22032390469A467CE708
S1130BF0281C02F03BFC7622441F5342A5401C1AD9
S1130C0000208046824670E7301C02F02FFC7623D9
S1130C10411F8E405A420021101A8C4672E700236D
S1130C203C4DFF26CEE75F46351C01976346022BF9
S1130C30C5D0032B63D0012B43D049467F31002913
S1130C4035DD0F272F40042F00D004352B0103D5A9
S1130C50314A494615408031FE29B0DCA801450AD5
S1130C60CEB2019BAEE700260025ABE78020C1038E
S1130C700D4211D00E420FD10E4373025D0AFF26BE
S1130C805B469FE701975346D1E7491B1A24012687
S1130C904CE75B1B3E4355E70D436A02550A3B1C78
S1130CA0FF268FE71D1C6B1E9D413543C5E77E243F
S1130CB067424A46B91A1B2908DD019B0026002514
S1130CC080E7019D00262B4000257BE74E469E369B
S1130CD0281CB5402B1C5D1EAB41C84003430F25A7
S1130CE01D40042D00D004335A0103D5019B012675
S1130CF0002567E79C01650A019B002662E78027BF
S1130D00FC0325436E02750A019BFF265AE7C04681
S1130D10B07D0000FFFF7F00FFFFFFF743024200AA
S1130D2070B55C0AC60F130E48024A00450A120E3B
S1130D30C90FFF2B05D0FF2A08D0012093420BD006
S1130D4070BD0120002CFBD1FF2AF6D10120002D1B
S1130D50F6D101209342F3D1AC42F1D18E4203D0BB
S1130D60002BEDD1002CEBD10020E9E7F0B54302D4
S1130D7042004F00C60F48025C0A450A130EC90F11
S1130D803A0EFF2B26D0FF2A29D0002B0CD160422B
S1130D9060418446002A0AD0002816D18E4221D010
S1130DA0002E14D1012014E0002AF7D194466F429A
S1130DB06F416046002805D1002FEFD00120002E9E
S1130DC007D004E00020002F03D10029EAD101213B
S1130DD04842F0BD002CD6D002225042F9E7002D43
S1130DE0D3D0F9E79342DBDC04DBAC42D8D8002053
S1130DF0AC42EED2002EEAD00120EAE7F0B543027D
S1130E0042004F00C60F48025C0A450A130EC90F80
S1130E103A0EFF2B26D0FF2A28D0002B0FD0002A11
S1130E2014D194466F426F416046002814D00020CC
S1130E30002F03D100290DD101214842F0BD6042A9
S1130E4060418446002AEDD00028F3D18E4211D0AF
S1130E50002EF1D10120F1E7002FF7D00120002E60
S1130E60ECD0E9E70220002CE8D1D4E70220002DE1
S1130E70E4D1D2E79342EBDC04DBAC42E8D80020B7
S1130E80AC42DBD2002ED7D00120D7E7F0B55F46C5
S1130E9056464D464446F0B44502460083B00F1C06
S1130EA06D0A360EC40F002E06D1002D70D1042118
S1130EB001228846924609E0FF2E43D0802318047D
S1130EC000210543ED007F3E88468A46381C4300D6
S1130ED07F02C10F7F0A1B0E8B463AD10121002FDE
S1130EE062D158466040424601900A430F2A3FD9D6
S1130EF02C04F018260C3B041A0C311C51433F0CF3
S1130F002D0C7E436A438146080C36182C1CB318FA
S1130F107C439A4200D99AE009041D04080C2E1857
S1130F20B5011B0C691E8D41B20EE7181543BC01B7
S1130F3025432B014BD50120284001216D0889440C
S1130F40054344E0002D1ED10820022180468A4634
S1130F50BCE7FF2B12D0802210040743584600211F
S1130F6060404246FF007F3B01900A430F2ABFD8EE
S1130F7090005B4A8446624410688746391C4A1EC6
S1130F8091410231ADE70C22032390469A469DE736
S1130F90281C02F06BFA7622461F5342B5401E1AF3
S1130FA000208046824691E7381C02F05FFA7621E1
S1130FB0431F4A429F400021131A92E7019451466D
S1130FC002292CD0032900D180E0012948D04E46C3
S1130FD07F36002E51DD0F242C40042C00D0043524
S1130FE02A0103D53F494E460D408036FE2E3DDD95
S1130FF0019B01241C40FF210025C805E20728436A
S1131000104303B03CBC90469946A246AB46F0BDA3
S11310100024354DFF21F0E751460229D2D1019D2C
S113102001242C40FF210025E7E75E463D1C019684
S1131030C6E73D1CC4E78026F3031D420BD01F42C4
S113104009D11F437A02550A5C46FF21D5E7802265
S11310505702E41960E71D436F027D0AFF21CCE7C4
S1131060019B00251940CCB20021C6E70198AD01CF
S113107001246D0AF1B20440BFE77E2673424A465A
S11310809F1A1B2F05DD019D01242C400021002502
S1131090B3E749469E312C1C8D402E1CFC40751E26
S11310A0AE4126430F203040042800D0043670019E
S11310B005D5019F01243C40012100259DE7019AAB
S11310C0B30101245D0A1440002196E78022D00375
S11310D005436C020199650A01240C40FF218CE749
S11310E0F07D0000FFFFFFF7FFFF7F00F8B543022C
S11310F045004F024C00C20F980984462D0E200E65
S1131100C90FBF09FF2851D0012671408A4238D047
S11311102C1A002C00DC86E0002822D1002F48D1B4
S11311206E1C2C1C6346151C0F221A40042A00D086
S1131130043301222A40580106D5FF2E00D181E054
S1131140B04D341C2B400136F6B2DD08012E62DDB1
S11311506802450AE4B2E4052543281CD20710437B
S1131160F8BDFF2D51D08021CB041F4301261B2C39
S113117070DD67462C1CBB1B151C580122D4661C51
S1131180D2E72E1A002E76DD002832D0FF2D3CD077
S11311908024E1040F4301231B2E00DCD1E06344CF
S11311A02C1C58017AD4661C151CBDE7002FADD148
S11311B0AAE7013C002C6DD163462C1CDB1B151CDB
S11311C05801DCD59A019609301C02F04FF9053814
S11311D08640844239DC001B1F231A1A331C311C3D
S11311E0441C9340E1405E1EB3410B43012600249E
S11311F09AE7002F00D193E7013E002E03D1644605
S11312003B192C1CCDE7FF2DC5D1151C802263464C
S11312105600FF2488E7002D9CD0002C28D080277E
S1131220F9030D4394E7002C45D16B1CD8B2012877
S113123000DC90E06446E61B730157D53E1B2C1C72
S11312400D1CC1E7FF24002585E76E4B241A3340AB
S1131250661C69E7381C2021E0400C1BA7403E1C9B
S1131260771EBE41064367462C1CBB1B151C84E736
S11312706B025D0A6FE7002E79D16C1CE0B2012885
S11312804BDDFF2C00D198E061467F18AE1C7B0833
S1131290151C49E7FF2D00D068E7B6E7671CFF2F50
S11312A036D058480121194003405B08A61C0B4363
S11312B03C1C151C38E76642002D1ED0FF286FD059
S11312C080256246EB041A43944601251B2E09DC53
S11312D062462023F24064469E1BB440251C6C1ECB
S11312E0A54115437B1B041C0D1C69E7002E0CD182
S11312F000220126042300241DE76446002C55D156
S1131300461C3B1C041C0D1C0EE72C1C151C5BE727
S113131080235E00FF2404230DE7002D00D08CE021
S11313206546002D00D1ACE0002F00D180E07B1990
S11313305C0100D47DE0334F151C3B4002260124A0
S1131340F2E6381C2023F0409E1BB7403B1C5F1E76
S1131350BB41034323E7002D15D16546002D47D13A
S1131360002FC5D03B1C0D1C01260024DCE6764270
S1131370002D26D16546002D00D07CE0461C3B1C88
S1131380041C151CD0E66546002D3FD1002F07D163
S1131390802100224E001C4BFF24CCE6FF2894D170
S11313A080203B1C0D1C4600FF24BDE6013E002EA0
S11313B0F4D13B1B0D1C041C02E780256E000423A2
S11313C0B9E6FF2851D080246146E30419438C46D2
S11313D001231B2E09DC20216446F44065468E1B44
S11313E0B5402B1C591E8B412343DB19041CD8E642
S11313F0002F1DD0EB1B58014AD57B1B01260D1C69
S1131400002491E6FFFFFFFBFCFFFF03002F00D148
S1131410FBE68020EB08C403234237D0FF082742B1
S113142034D13B1C0D1C8022DB005600FF247BE6DC
S11314306346151C0126002476E66446002C14D06D
S1131440002F00D1E1E68023E608D803311C0642D0
S113145003D0F908014200D0311C151C8022CB00B6
S11314605600FF2460E6FF28B2D180203B1C151CE7
S11314704600FF2458E6013E002EF4D17B19041CDB
S11314808FE63B1C151C012600244DE6151CCAE7FB
S1131490002B00D12CE7CCE743024200590A00B5E7
S11314A0130EC20F00207E2B0DDD9D2B0CDC802043
S11314B000040143952B0ADC9620C31AD940484204
S11314C0002A00D1081C00BD02495018FBE7963BD6
S11314D09940F4E7FFFFFF7F70B5041E3CD0C50FB1
S11314E000D04442201C01F0C1FF9E21261C0B1A8F
S11314F0962B0ADC0838844061024C0ADBB2DB0517
S11315001C43ED07201C284370BD992B0ADD0522DE
S1131510141A311CE140041C1B34A6400A1C711E21
S11315208E41164305281BDC144C0F223440164010
S1131530042E00D00434620105D59F231B1AFF2B0F
S11315400CD00E4804405E1CF1B2E40801290ADD07
S11315506402640ADBB2D2E7002500230024CEE74C
S1131560411F8E40E0E7002CF4D0002B03D08022F2
S1131570D0030443ECE76602740AC0E7FFFFFFFBF5
S113158010B5041E34D001F071FF9E231B1A962B54
S113159007DC083884406402610ADBB2D8050843DA
S11315A010BD992B0ADD021C1B32211C91400A1C20
S11315B0511E8A410521091ACC40144305281ADC1E
S11315C0184A0F2122400C40042C00D0043251014F
S11315D005D59F24231AFF2B21D012480240591C01
S11315E0CCB2D208012C09DD5002410ADBB2D5E7A6
S11315F000230021D2E7421F9440E1E7002A0BD0E8
S1131600002B06D08021CC0322435202510ADBB2C4
S1131610C4E75002410AC1E7DBB20021BEE7FF2361
S11316200021BBE7FFFFFFFBF8B55F4656464D467A
S11316304446F0B40C03460F640A3443A3465E00E8
S11316401C03DB0F9C46630A98464D00530F444627
S11316501C436D0DC90F760DD2000F1CC000A146AE
S11316609246AB1B614500D1A2E0002B00DCF0E008
S1131670002E0CD1261C164300D1C0E0013B002BE8
S113168000D041E15C464B46821AE71A21E0D04E75
S1131690B54200D1C8E080244A4627043A43914623
S11316A0382B00DD0AE11F2B00DD4BE12026F61A62
S11316B04C4652465746B440B740DA4022433E1C9B
S11316C04C46771EBE41DC403243261C5B46821AE0
S11316D09F1B904280414642BB1B141C2E1C0F1CB6
S11316E0180200D4A9E05D02690A88464246002A2D
S11316F000D1D4E0404601F0B9FE051C083D1F2D81
S113170000DDD5E02822131A201C4146D840A94008
S1131710031C0B43AC40AE4200DD8BE0AE1B711CDE
S11317201F2900DDFBE01F20851B1A1C201CAA407A
S1131730C840AC401043661EB4410443CB40012270
S113174000260F202040042862D0201DA042A4417E
S1131750614201255B182F401C0207D59C4EB24202
S113176000D198E09B4C161C234001325C07C00852
S113177052050443DB08510D012960DD1B0371058B
S11317801B0B4E0D002000210A0D201C1105924C4C
S11317900B43760575081C402C4363005A08FF0769
S11317A0111C39433CBC90469946A246AB46F8BD51
S11317B0002B00DC8EE0002E2ED0854EB54200D1E9
S11317C0A6E080244E4622041643B146382B00DDA1
S11317D016E11F2B00DD71E12026F61A4A46B240BD
S11317E0904652464446DA4022435446B440261CAE
S11317F0741EA6414C463243DC401218F4E0041C2B
S11318000F206A1C5B462E1C0F1C204004289CD110
S113181001252F40201C9FE7144300D0DEE06A1C02
S11318205B46041C2E1C8CE780215B46041C0A01C9
S11318302E1C86E7761B674D2B40721C81E7251C06
S11318401D4300D168E2002E41D0802002031343DF
S113185094E7002B00D088E0691C4E05740D012C20
S113186000DC1BE15B46161C4C46821A191B904295
S11318709B415B42C91A88460B0200D49EE0371A8A
S1131880BA4592415E46A41B5342E11A88463C1C69
S11318902E1C67462AE7161C0023002472E7201C2E
S11318A001F0E4FD2030051C083D1F2D00DC29E774
S11318B0031C283B9C40231C00242CE74A46534627
S11318C01A430026002A00D100E70122FEE61D0388
S11318D02B0B57E7002B00D005E16E1C7405630D3C
S11318E0012B00DCABE03A498E4200D131E1111802
S11318F0814280414B4642425B449B18DC074908C5
S11319000C435B08AA1C1CE7314FBD4200D0C7E65C
S1131910041C80205B460F1C02012E1C11E7301CA6
S11319201F381A1CC240151C202900D183E03F2116
S11319308E1BB3401C43631E9C412C430122002395
S11319400026FEE61C1C203C4F46E7403E1C202B94
S113195073D04022D41A4B46A3401A1C57463A432C
S1131960531E9A4132430026B0E65F42002D51D007
S1131970174DAE4200D156E180245A4621040A4351
S11319809346382F00DDDBE01F2F00DD79E12021B5
S1131990CC1B051C5A46A240FD40A04015435B46A3
S11319A0421E90412843FB4057463C1AA2459241AF
S11319B04846C11A55424B1B674691E6081C104322
S11319C031D100270122002304200026C4E6C046AA
S11319D0FF070000FFFF7FFFFFFF0F80013B002B8D
S11319E024D153461A184C46824280415C444342F7
S11319F0E3182E1C141C18023ED4721C0F1CA0E603
S1131A004A4653461A430024002A00D1F5E601222F
S1131A101218E9E75B46034300D083E0231C721CE1
S1131A20544667468DE6141C2E1C5FE6CD4EB54227
S1131A3000D0CBE66CE700237CE700228EE75E460D
S1131A400643002D00D0F4E0002E00D14CE14B46BB
S1131A50134300D17EE115184E46854280415E4411
S1131A604242B3181E0200D482E1BF4F2C1C3B40FB
S1131A7002220F1C012664E6BA4D701CA8424BD00A
S1131A80B94F0125254062083B402C1CDF07144355
S1131A903C43B21C5B08061C0F1C52E65E46064320
S1131AA0002D2CD1002E00D07DE04E46141C164390
S1131AB087D04B4667460122002642E61E1C203E84
S1131AC04C46F440261C202B00D1D8E04022D41AE6
S1131AD04B46A3401A1C54462243531E9A41324398
S1131AE00024121880E75B42002D37D15C46044382
S1131AF000D0D7E0721C4B4654460F1C21E6002E42
S1131B006ED14B46141C134300D1DCE080254B46B8
S1131B1067462A01934E14E68021061C0A0100231D
S1131B20042019E6013F002F79D1171A5B46BA4504
S1131B30AD414946CA1A68423C1C131A6746CFE5B0
S1131B405F46074300230020002F00D12CE701202B
S1131B502AE780252A0100230420FDE5814DAE42B9
S1131B6000D1D3E080245D4622041543AB46382BD4
S1131B7000DDB0E01F2B00DDDBE02025ED1A021CA8
S1131B805C46AC40DA40A840451EA84122430243CB
S1131B905846D840031C55465419544592414B4469
S1131BA050421B1827E74A465646324300D185E087
S1131BB0851B5B464C46A8429241191B56428B1B1F
S1131BC01E0200D4ADE057463D1A5B46AA45894142
S1131BD0E41A4A42A31A67462C1C01220026B0E5E7
S1131BE04D46161C154344D05C468021C00862074C
S1131BF0E3080D0310432B4200D181E04C46E10879
S1131C0029427DD1F70866073E430B1C6746700FD7
S1131C10DB008022F40003431201524E91E5514D42
S1131C20AE4200D0ADE680204B46544667460201E2
S1131C3087E5002E5ED04C4614431AD0C708802591
S1131C40584643072C03C0081F43204208D04E4681
S1131C50F308234204D15246D5087707181C2F43B2
S1131C60C300FC00780F0F1C802103430A013D4E82
S1131C7067E5802632015B46041C3A4E61E500228A
S1131C8029E7391C20395C46CC40221C202F67D020
S1131C904023DF1B5D46BD402843431E984110434B
S1131CA0002381E6013B002B2CD150445C4690423A
S1131CB0AD414C446A42A318041C9CE65B46041CD8
S1131CC0012200263DE58024042100272201274B20
S1131CD04842244E40E55D46054300230022002D82
S1131CE000D158E7012256E7141C4B460F1C012271
S1131CF0002626E5141C80224B461201194E20E5CD
S1131D00061C84E7174A964200D030E70F1C802156
S1131D104B4654460A0114E57605760D002300244B
S1131D2030E5181C284300D14BE62C1C0122002668
S1131D3007E51C1C203C5D46E5402C1C202B1CD0D8
S1131D404022D31A5A469A400243501E82412243EB
S1131D50002320E75B46041C0F1C01220026F0E44C
S1131D60002599E7FF070000FFFF7FFFFFFF7F00CB
S1131D702C1C0F1C01220026E3E40022E4E7C046E9
S1131D80F0B54D4644465F465646F0B41D1C4B0024
S1131D90141C0E035B0DCA0F87B0071C360B984644
S1131DA09146002B1DD1321C024300D181E1002E4B
S1131DB000D104E2301C01F059FB272800DDF8E1D2
S1131DC02821031C083B0A1A391C9E40D1400E43AB
S1131DD09F40C14B0021181A002280468A46009277
S1131DE00FE0BE48834231D080214B031E43BC48E0
S1131DF07A0FF600002100231643FF0080448A4630
S1131E000093291C201C251C4A000C03CB0F240B17
S1131E10520D9B4625D1211C014300D150E1002CD9
S1131E2000D1C2E1201C01F021FB272800DDB6E12E
S1131E30031C2822083B291C121A9C40D1400C4345
S1131E409D40A54B1A1A0020029019E0321C3A4317
S1131E5000D029E108270223BA4600260027009370
S1131E60CFE79E48824200D113E180214B031C43FB
S1131E709B49680FE40000230443ED0052180293C9
S1131E8048465B46434002985146019301430F295B
S1131E9000D8DFE043469A1A0492A64200D86EE1C5
S1131EA071087B08F6073343FA078946984602927D
S1131EB0280E240204432D022704390CAB46250CBA
S1131EC000914846291CFEF7AFFC009F061C4743BF
S1131ED0291C4846FEF7ECFC434608041A0C104340
S1131EE0874207D90019013E844203D8874201D9A9
S1131EF0013E0019C11B8A46081C291CFEF794FCEC
S1131F00009B071C4343291C50469946FEF7D0FC0E
S1131F10424610040B04010C0B43994504D91B19C8
S1131F20013F9C4200D864E136043E435F464A4682
S1131F30390C89469B1A59463204170C0A0449463F
S1131F407943120C03928C460399300C7A43414333
S1131F504F4678438C44170C6744B94202D9802118
S1131F6049024018390C120440183F04110C7F1820
S1131F70834200D227E100D141E102991B1ACF1B11
S1131F80B942804141425A1A9046A24200D15FE1CF
S1131F90101C291CFEF748FC009B02904343291C9B
S1131FA040469A46FEF784FC380C090401438A45EE
S1131FB00AD9029A0919013A02928C4204D88A4534
S1131FC002D9013A029209195346C81A291C0590EC
S1131FD0FEF72AFC009A291C424380460598924643
S1131FE0FEF766FC3F040D043A0C2A43924509D9D6
S1131FF001214B4212199844944203D8924501D9C5
S113200098441219029D43462F041F435046111A47
S11320103804030C4D465D430398AC46039D3A0CCB
S1132020584355434B465A43AC44030C63449D42C6
S113203002D980256D0252191D0C000452191B048B
S1132040050C5B19914200D2E6E000D13DE101228A
S113205017435AE0890023488C46604401688F4640
S1132060019B1E4A0026002700200021381C0F0D6A
S11320703C051D4D34431205254015436E00DB0716
S11320807108194307B03CBC90469946A246AB463A
S1132090F0BD211C03202943029000D0F0E6022366
S11320A0002400250293EBE60C20032182460091D4
S11320B0A7E604270123BA46002600270093A0E6DA
S11320C00121002400250291DAE601270023074EAE
S11320D07F42024AC8E7C0460DFCFFFFFF0700002D
S11320E001FCFFFF307E0000FFFF0F80FFFF0F00A9
S11320F02F1C5A46029D261C0192022DB0D0032D9E
S113210000D101E1012D00D19CE0049B82481A1802
S1132110002A00DC8CE00F243C40042C05D03B1D3D
S1132120BB42BF417D4276191F1CF10105D57B4A94
S113213004998020C40016400A19794B9A4200DDA4
S11321408EE77507FF08760251052F43360B4A0DBB
S1132150019B89E700220026002785E780200103F0
S11321600E4216D00C4214D10C432603360B5B46A8
S11321702F1C6C4A78E74C460194009DBDE7A642AB
S113218043D00498B846013800270490B14602971A
S11321908EE60E4333031E0B624A4B4664E7041C6F
S11321A0283CA5402C1C00254BE601F05FF92030AB
S11321B03BE6061C283EB7403E1C002709E601F01A
S11321C055F92030F9E5029A013E111C594459454C
S11321D0924152421219D3189C4204D298426BD8AD
S11321E016D01B1ACBE6A342FBD18B45F6D9231A92
S11321F0C5E6994500D897E6013F1B1994E6029A73
S1132200BA42E0D302990023B9E6AF42B9D947E60E
S11322108F4251D80023B2E60919013F58468C4237
S113222019D9914200D012E7984200D00FE76CE729
S11322303D4C049D631B382B1CDD019B00220026B2
S1132240002711E7019B00222B40002600270BE703
S113225001277F4259E78A4203D800D0F7E6984223
S1132260E2D25D4668005845AD416D422C19013FEC
S11322700919D6E71F2B34DC049C2C4A381CA518FA
S1132280311CAF40D840A9403C1C0143671EBC41EF
S11322900F1C2743DE400F233B40042B05D03A1D7F
S11322A0BA42BF417D427619171C320211D5019BF7
S11322B0012200260027D7E659445945924152424B
S11322C01219D318013E1B1A59E6002BA4D1002081
S11322D0AAE77007FF08710207430E0B019B002257
S11322E0C2E61349049C301C0A1BD040051C202B59
S11322F008D0104BE1188E4037437B1E9F412F437B
S11323000026C8E70026F7E78022100306433103BE
S11323100E0B019B034AA7E6FF030000FFFFFFFE2D
S1132320FE070000FF07000002FCFFFF1E04000080
S1132330E2FBFFFF3E040000F0B5944647461A0353
S1132340061C580080B4170B420D19480D034C00AD
S1132350DB0F2D0B640DC90F9846844208D0144836
S113236082420DD00120944212D004BC9046F0BDAC
S11323702B1C33430120002BF7D10D488242F1D1AD
S113238063463B430120002BEFD101209442ECD162
S1132390BD42EAD16645E8D1414506D0002CE4D1DE
S11323A0281C3043451EA841DFE70020DDE7C04676
S11323B0FF070000F0B557464E464546E0B4041CFE
S11323C04E000803C90F8A46171C59001A03050B4F
S11323D0700D160B4A0D3049DB0F9C46884232D0F3
S11323E02D498A4235D000280FD1291C21434B4264
S11323F04B419846002A0BD0002B1AD1E2452CD031
S11324005546002D18D1012018E0002AF6D1904637
S1132410311C39434B424B414146002906D1002B24
S1132420ECD056460120002E08D005E00020002BF9
S113243004D16746002FE6D1012358421CBC9046C4
S11324409946A246F0BD2B1C2343C9D00221484221
S1132450F4E7331C3B43C6D0F8E7904205DC09DAC5
S11324605246002AE8D00120E8E75446002CE3D184
S11324700120E3E7B542C3D807D00020B542DDD23E
S113248050460028D8D00120D8E7BC42B8D8002054
S1132490BC42F5D3D2E7C046FF070000F0B544467E
S11324A05F4656464D46F0B49446061C1A0358003F
S11324B0170B420D2E480D034C00DB0F2D0B640D42
S11324C0C90F9846844233D02948824236D0002C22
S11324D019D0002A20D1934663463B4358425841C1
S11324E05B468246002B1DD051460020002904D1B2
S11324F04246002A14D1012460423CBC90469946CD
S1132500A246AB46F0BD2B1C3343584243419B4685
S1132510002AE1D0002BEBD1414515D00029EAD1A6
S11325200120EAE70028F7D001200029E5D0E2E7FE
S11325302B1C33430220002BDFD1C5E763463B430A
S11325400220002BD9D1C2E79442E7DC05DBBD426F
S1132550E4D806D00020BD42CFD20029CBD0012040
S1132560CBE76645DAD800206645F6D3C5E7C04612
S1132570FF070000F0B5564644465F464D46F0B4AA
S11325804F001D1C0B03141C1A0B7B0D87B0061C7B
S113259092469846CF0F002B21D1024300D149E146
S11325A05346002B00D1E4E1504600F05FFF031EC8
S11325B0272B00DDD8E1083B514699402822884664
S11325C0111A321CCA4041460A4392469E40D84BD7
S11325D00022181A002180469146039111E0D54843
S11325E083423ED0802153464A031A43D000710FE0
S11325F00843D14A824600230020F60090449946BD
S11326000390291C201C251C4A000C03CB0F240B0F
S1132610520D9B4631D1211C014300D112E1002C03
S113262000D19DE1201C00F021FF272800DD91E16D
S1132630031C2822083B291C121A9C40D1400C433D
S11326409D40BB4B59461A1A794000204B460191D4
S113265003430F2B26D89900B84B8C466344196862
S11326608F46111C314300D0DFE0082600200221F0
S1132670B146824600260391C3E7AE48824200D1A8
S1132680C9E080214B031C43AB49680FE4000443B9
S1132690ED0052180020594679404B4601910343FE
S11326A00F2BD8D942443304290404921A0C0F0C7A
S11326B0101C7843360C331C80462D0C7B43301C95
S11326C06843111C69439C4643468346180C08180A
S11326D06044844500D91FE1010C43460391190469
S11326E00B0C0004C0182104240C0590101C624338
S11326F0090C02924843321C66434A43029BB1468A
S1132700060C9046B4461A1C62444244904502D9D1
S1132710802673029944160CB046C14400044B460B
S1132720060C12040293931956463204100C021C30
S11327306A439C46031C7B439146320C574398469C
S11327401B0C9A46D144B94455434F4502D98027BE
S11327507E02AD194B461F0C4646ED191F04330487
S11327601E0C031C4B436043514354431A0C801802
S1132770B046401847449A46814202D980214E020D
S1132780A419039B1A1C62445A44624589414E426F
S11327905146B34603040E049C460299330C634429
S11327A0CE18B046C246DA44D219BA42BF415146A5
S11327B07B426F18F9189946DA459B415E42029BA9
S11327C0B3469845B64176425B461E43000C4945E4
S11327D09B41AF42AD4136186F42584238433618D8
S11327E00598341956020643CB0D6402701E8641C7
S11327F0D20D164349021C430E43E0012FD5012795
S1132800049D374073083E1CE00701351E430495C0
S11328100643640823E0231C2B430320002B00D031
S113282039E700240025022035E70C2203239146D2
S11328300393E6E6042600230120B1469A460026C7
S11328400390DEE600240025012024E70398544683
S1132850022844D0032800D1EAE0012860D0049A79
S113286037495018002800DC95E00F273740042F23
S113287005D0311DB142B641754264190E1CE10107
S113288005D53048049A8023DF000440D0192E492E
S1132890884224DC019B6507F6086402420501278F
S11328A02E43240B520D1F4000200021090D0D055D
S11328B02543264C12052C4014436300301C5E084B
S11328C0FF07311C394307B03CBC90469946A246E9
S11328D0AB46F0BD5A462E1C01920228BAD1019E85
S11328E001273740134A00240026DDE754460197A8
S11328F00398ADE701260027154C76420D4AD3E72D
S11329002E1CA5E7802213035146194235D10B43EF
S11329101D032C0B074AC7E780214B029B44DBE6CF
S1132920019B00221840C7B200240026BCE7C04621
S11329300DFCFFFFFF07000001FCFFFF707E00009D
S1132940FF030000FFFFFFFEFE070000FFFF0F80F4
S1132950FFFF0F00041C283CA5402C1C002570E63A
S113296000F084FD203060E6283B9E40B2460026FD
S11329702DE600F07BFD203019E61C4206D11C43F5
S11329802603340B5F462E1C2E4A8DE70B43180397
S1132990040B2C4A88E72C4F049D7B1B382B06DD47
S11329A0019E012737400022002400267CE71F2BCC
S11329B021DC049A254F351CD119201C8E40DD40A2
S11329C08840321C2843561EB241061C1643DC4084
S11329D00F233340042B05D0371DB742B641714253
S11329E064183E1C250217D5019B01271F400122B4
S11329F00024002658E71648049A211C871AF94037
S1132A000D1C202B12D0134BD01884402643721E69
S1132A1096412E430024DBE7019A6507F60860021D
S1132A20012717402E43040B00223DE70024EDE765
S1132A3080210F033C43019824030127240B074002
S1132A40004A31E7FF07000002FCFFFF1E040000FC
S1132A50E2FBFFFF3E040000F0B557464E464546F4
S1132A60E0B4071C0D034E00680ACC0F790F08432D
S1132A708446111C18035A00FD00400ADF0F4B0F57
S1132A801843C74BC900760D520D8A469A4200D1AD
S1132A90DEE001235F40B946BC4200D1A6E0B71A8C
S1132AA0002F00DC0BE1002A12D15246024300D170
S1132AB0D2E0013F002F00D05BE151466F1ABD42C6
S1132AC0AD4162466B42101A3D1CC31A371C24E008
S1132AD0B34A964200D1DEE080210B041843382F1C
S1132AE000DD1EE11F2F00DD60E12021C91B021C57
S1132AF053468A40FB401A4353468B40191C4B1ED5
S1132B009941031C0A43FB40AA1A67469542AD410A
S1132B10F81A6B42C31A151C371C1A0200D4C2E0FF
S1132B205E02710A88464246002A00D1EBE0404624
S1132B3000F09CFC021C083A1F2A00DDECE028236C
S1132B40181A2E1C4146C6409140331C0B43954035
S1132B50974200DDA4E0D01B411C1F2900DD0DE1DC
S1132B601F273A1A2E1C181CCE4090409540304323
S1132B706A1E9541CB400543012100270F262E40B4
S1132B80042E00D170E02E1DAE42AD4168420122F8
S1132B901B181440180207D5814FB94200D1AEE08A
S1132BA0804D0F1C2B400131F20849055E0732436A
S1132BB0DB08480D012800DC77E01B037F051B0BB5
S1132BC07E0D002000210D0D101C2905764A0B43B3
S1132BD077057E081A40324353005D08291CE40738
S1132BE021431CBC90469946A246F0BDB31A002B63
S1132BF000DCA3E0002A3BD0694A96424BD08021F6
S1132C000F043843382B00DC14E1534618430027E3
S1132C100022002800D001225219AA42AD41674483
S1132C206B42FB18151C371C1E023CD55C487E1CED
S1132C30864200D177E15B4901222A400B406808B3
S1132C40151CD90705430D435B08B91C371C95E7D0
S1132C50014300D11DE71EE7711C371C0F26634694
S1132C602E40042E00D08EE7012214402E1C91E742
S1132C7052460243F0D0013B002B09D15746791943
S1132C80A9429241554260444319371C0D1CCBE7BD
S1132C9043498E42B6D1802063460101371C6DE75B
S1132CA0BF1A404A1340791C68E7151C1D4300D124
S1132CB020E2002F3ED0802631030B437DE7002F16
S1132CC000D085E0721C51054B0D012B00DCEFE0B8
S1132CD05746EA1B95429B416746391A5B42C91A1B
S1132CE088460B0200D49CE05446651BAA459241D9
S1132CF0C01B5742C31B9846371C4C4613E70E1C97
S1132D00002300225DE7281C00F0B0FB2030021CE9
S1132D10083A1F2A00DC12E7283885402B1C0025BE
S1132D2016E75746384300230022002800D1EBE67B
S1132D300122E9E61803030B002642E7002B00D02A
S1132D40D8E0771C79054A0D012A00DC94E0144B85
S1132D509F4200D1FDE051464919A942AD41624666
S1132D606B428018C2184908D5070D435308B11C9B
S1132D7004E70B498E4200D0B1E68CE7061C1F3EE7
S1132D801F1CF7403E1C202972D03F22101A83409A
S1132D901D436B1E9D413543012100230027EDE6B1
S1132DA0FF070000FFFF7FFFFFFF0F803B1C203B5E
S1132DB0011CD9400B1C202F5CD04022D71BB840EB
S1132DC0021C50460243511E8A411A4300239BE6CB
S1132DD07F42002E40D0CA4CA24200D11FE1802184
S1132DE066460B041E43B446382F00DDA9E01F2FAE
S1132DF000DD3DE12023DE1B291C6446B440F9407C
S1132E00B5406B1E9D41214363460D43FB4057462D
S1132E107D1BC01AAA459B415F42C31B4C46171C2D
S1132E207BE60D1C154320D1002401210023042638
S1132E300027AFE61F2B4ADC2021C91A071C524683
S1132E408F40DA403A4357468F40391C4F1EB941F0
S1132E50D8400A43071CDFE664462C4369D1511C61
S1132E60031C5546171C4C4688E6151C371C5AE6AD
S1132E7000238DE70022A4E767462F43002E00D0ED
S1132E80D4E0002F00D126E15346034300D1E4E00F
S1132E9051464F19AF42AD4160446E4283191E0240
S1132EA000D44EE197483D1C03400221012765E60A
S1132EB061462943002E29D1002976D15146014388
S1132EC0B2D0031C55464C460121002756E61F1C70
S1132ED0203F011CF9400F1C202B00D1C6E04022EA
S1132EE0D31A9840021C50460243531E9A413A4357
S1132EF0002791E65B42002E30D167462F4300D075
S1132F00C8E0511C031C5546171C37E6002965D13F
S1132F105746074300D1C8E0031C802055464C4661
S1132F200101774F2AE68023371C19010426002368
S1132F3030E6013F002F6ED154466146651B401AAE
S1132F4068E767463D430023002D00D15FE7012574
S1132F505DE780263101002304261BE668498A4286
S1132F6000D1C1E08027664639040E43B446382BAD
S1132F7000DDA2E01F2B00DDD0E02021C91A2E1CA9
S1132F8067468F408D40DE403E43291C67464D1EF8
S1132F90A941DF40351C0D433E1C554455459B411A
S1132FA030185E428319171C3EE65646064354D039
S1132FB05746EA1B63469542B641191A7342CB1A27
S1132FC01E0200D4A2E07D1B6446AA45BF41001B3B
S1132FD07A42831A4C4601210027CFE55646064320
S1132FE03FD0624680215707ED08D3080A033D43CA
S1132FF0134208D0C608164205D15546EC084507C9
S11330002543331C4C46680FDB0080260343ED0048
S113301031013B4FB2E53A498A4200D0E4E68026CA
S1133020031C55464C463101171CA7E5002F4CD014
S11330305346034315D062468026ED085107D30852
S113304037030D433B42DED0C2083A42DBD155463A
S1133050E9084507131C0D43D5E763460121002702
S11330608CE5802739016346254F87E500223AE73E
S11330703C1C203C6646E640331C202F5FD0402495
S1133080E71B6646BE40311C0D43691E8D411D433E
S11330900023BCE6013B002B22D155445545BF41DA
S11330A07B426044C318171CBEE58021042200241F
S11330B00901154B5642124F6CE563461D43002629
S11330C0002D00D169E7012567E78022031C5546DE
S11330D011010B4F52E5031C5546012100274DE514
S11330E007498A4200D042E78021031C5546090162
S11330F0171C43E57A05560D0023002261E5C046FE
S1133100FF070000FFFF7FFFFFFF7F001D1C15432B
S113311000D189E6151C012100272FE51F1C203F43
S11331206146F940202B10D04026F31A67469F4091
S11331303B1C1D436B1E9D410D4300262DE70021C2
S1133140A2E73D1C0121002718E50023F1E7C04652
S1133150134A0B0330B5051C48001C0BC90F430D63
S11331600020934211DD0F4883420FDC802250037C
S11331700D4A0443D01A1F280BDD0C4DEB1ADC401A
S1133180221C5042002900D1101C30BD084C0819E3
S1133190FBE7C54007482A1C1D18AC402243F0E752
S11331A0FE0300001D0400003304000013040000AB
S11331B0FFFFFF7FEDFBFFFFF8B5041E2DD0C50F09
S11331C000D04442201C00F051F916490A1A0A287A
S11331D016DD0B388440570526037A0D360B00277D
S11331E000200021381C0F0D3B050F4C33431C40BD
S11331F01605344361004A08ED07111C2943F8BD44
S11332000B26011C301A1531231CC4408B40520577
S113321021031F1C0E0B520DE2E70025002200269D
S11332200027DDE71E040000FFFF0F8070B5041EB9
S113323026D000F01BF914490A1A0A2813DD0B38AA
S1133240844056052403720D250B0026002000211E
S1133250301C0E0D33050D4C2B4311051C400C4343
S11332606500690870BD0B23051C181A1535211C4F
S1133270C440A940520525030E1C2D0B520DE5E751
S1133280002200250026E1E71E040000FFFF0F8056
S1133290410070B50E0E731C4202C50FD8B2540A19
S11332A0012815DD6307E024A000120B3418002068
S11332B00021181C0B0D1E051C4B324361054C08E4
S11332C0134023435A005608ED07311C294370BDAF
S11332D0002E16D1002C1ED0201C00F0C7F80A289E
S11332E01DDC0B22111A021C231C1532CB40944006
S11332F01E1C231C34030E4E220B301A41054C0DA8
S1133300D5E7002C03D06307120B0A4CCFE7094C16
S113331000220023CBE7002400220023C7E7011C7E
S11333200B398C40261C0023E4E7C046FFFF0F80C6
S113333089030000FF070000F0B5041C4800400D9D
S11333400B03CD0F411C620F5B0A4F051343E600CC
S11333507A0D012A35DD3E494218FE2A18DD802304
S11333605900FF220423580105D5FF293FD0394FC6
S11333700A1C3B400131CCB2DF08012C19DD790273
S11333804F0AD2B2D2051743ED07381C2843F0BDCB
S1133390002A2FDDA401770F611E8C41DB002E4E25
S11333A0234381193B430F261E40042EDBD00433F4
S11333B0D9E7002FE5D0002A16D08020C603374372
S11333C0DDE7002806D133430121002B15D1042366
S11333D00022C8E71E43C2D08024DB00A00480265C
S11333E003437100FF22DEE77B025F0ACAE7FF2284
S11333F00027C7E7173203DA012105230022B2E7C9
S11334008022164F11040B433C1A1F2C0DDC144967
S1133410321C4718BE40301CBB40461EB041E2403F
S11334200343134301210022BDE70E4A1F1C111A56
S1133430CF403A1C202C09D00B4C00198340334355
S11334405E1EB341134301210022ACE70023F6E7DB
S113345080FCFFFFFFFFFFFB81FCFFFF9E030000DA
S113346082FCFFFF7E030000A2FCFFFF1C2101235E
S11334701B04984201D3000C10391B0A984201D353
S1133480000A08391B09984201D30009043902A231
S1133490105C40187047C046040302020101010198
S11334A0000000000000000080B500AF00BEBD4673
S11334B080BDC04680B500AF054A0649064BD150D1
S11334C0064A88235B010021D150BD4680BDC04619
S11334D000E000E000000000080D0000007004405F
S11334E080B500AF054A064BD31A054A101C0021CB
S11334F01A1C02F00FFDBD4680BDC046BCFEFF1F76
S113350048F0FF1F04F040F9FFF7D4FFFFF7E8FF8E
S113351004F06EF904F0ECF804F044F904F0FEF958
S1133520044B0020191C02F08BF8031C181C02F039
S1133530D5FCC04648F0FF1F80B582B000AF78606C
S11335407B68181C04F06EF9FEE7C04690B583B0A2
S113355000AF78607B68202B27DC154A1449C02310
S11335605B00C9587868134B034004D5013B202005
S11335704042034301330120041C9C40231C194393
S1133580C0235B00D1500A4A094B19687868094B7B
S1133590034004D5013B2020404203430133012072
S11335A0041C9C40231C0B431360BD4603B090BD18
S11335B000E100E01F00008080B582B000AF7860B9
S11335C07B68202B10DC0A4A79680A4B0B4004D52F
S11335D0013B202149420B4301330121081C98403F
S11335E0031C191C8023D150BD4602B080BDC046C7
S11335F000E100E01F00008080B500AF274A2749A2
S1133600274BCB58802189001943254BD15025499C
S113361080231A01244B081C111C1A1C00F032FED2
S1133620224A234B101C80211A1C00F02BFE214B34
S1133630902292005A601F4B902292009A60174A7F
S113364016491D4BC9581D4B19401B4BD150134AE9
S11336501249194BCB588021C9041943164BD15038
S11336600E4A0E49144BCB58802149021943124B80
S1133670D150134AE1235B02101C191C00F080F89E
S1133680104B104AD278D2B220210A43D2B2DA7057
S11336900C20FFF75BFFBD4680BDC04600700440B0
S11336A0381000007CF1FF1F08F2FF1F70F1FF1FAC
S11336B088F1FF1F0090044004100000FFFFFFF397
S11336C0C05D000000A0064080B500AF0C4B181C84
S11336D000F00EFE031C002B0FD00A4B1B79DBB24B
S11336E0DBB25BB2002B08DA064B064AD278D2B2C0
S11336F0802149420A43D2B2DA70BD4680BDC04639
S11337007CF1FF1F00A0064080B582B000AF194BCA
S11337101B79DBB21A1C2023134007D0154BDB792D
S1133720DBB2154A101C191C00F00AFE114B1B7960
S1133730DBB2DBB25BB2002B19DA104B181C00F0C1
S1133740D7FD031C002B0AD00C4AFB1D101C191CAE
S113375000F07CFE074BFA1D1278DA7107E0054B86
S1133760044AD278D1B27F220A40D2B2DA70BD467E
S113377002B080BD00A0064070F1FF1F7CF1FF1F66
S113378080B58CB000AF786039600023FB61002302
S1133790BB6200237B620023BB6100233B627D4A42
S11337A07C497D4BCB588021C90019437A4BD150B9
S11337B07A4B7A4AD278D2B20C218A43D2B2DA70E6
S11337C07A68774B9A4202DC7B681F2B0EDC00235D
S11337D07B60704A734BD358BB61BA69724B134018
S11337E0BB616C4A6F4BB969D150FEE73B687B61A2
S11337F07B68FA22920053433B613B1C2F33042223
S11338001A703B1C2F331B787A6953433869191C8F
S1133810FDF70AF8031CFB603B1C2F331B78FA6886
S113382053433869191CFCF7FFFF031CFB61FA6959
S11338307B699A4204D9FA697B69D31ABB6203E0B3
S11338407A69FB69D31ABB623B1C2F331B787B62FA
S11338503B1C2F3305221A7033E03B1C2F331B789B
S11338607A6953433869191CFCF7DEFF031CFB60BB
S11338703B1C2F331B78FA6853433869191CFCF737
S1133880D3FF031CFB61FA697B699A4204D9FA6984
S11338907B69D31A3B6203E07A69FB69D31A3B6202
S11338A03A6ABB6A9A4205D83B6ABB623B1C2F3317
S11338B01B787B623B1C2F333A1C2F321278013267
S11338C01A703B1C2F331B78202BC6D97B69181C1C
S11338D06421FCF7A9FF031C1A1C131C5B009A1833
S11338E0BB6A9A4252D97B6A032B0AD97B6A082B9A
S11338F007D82A4B294AD27AD2B202210A43D2B239
S1133900DA72264B9B7ADBB2BB61BB691F229343FD
S1133910BB617B6ADBB2013BDBB21A1C1F23134081
S1133920BA691343BB611D4BBA69D2B29A72BA69C0
S11339301F2313400133BB617B69BA695343386960
S1133940191CFCF771FF031CFB60144B1B78DBB2E2
S11339501F229343BB61114BF968F82252010A40BC
S1133960120AD1B21F220A40D1B2BA69D2B20A43B2
S1133970D2B21A70094BFA68D2B25A70074B074A8E
S1133980D278D2B20C210A43D2B2DA70BD460CB05E
S113399080BDC046007004403410000000A0064002
S11339A050C3000004100000FFFFFFF380B500AF18
S11339B0124A134B101C191C00F020FD0F4A114B26
S11339C0101C191C00F01AFD0C4A0F4B101C191C7A
S11339D000F014FD094A0D4B101C191C00F00EFDDB
S11339E0064A0B4B101C191C00F008FD034A094B36
S11339F0101C191C00F002FDBD4680BD7CF1FF1FA8
S1133A00007A0000087A0000307A0000487A00004A
S1133A106C7A0000807A000080B500AF044B00226D
S1133A201A70044B00221A70FFF7C0FFBD4680BD18
S1133A308DFAFF1F08FAFF1F90B585B000AF7860BC
S1133A40204A214B101C191C00F0D8FC1D4A1F4BA6
S1133A50101C191C00F0D2FC3B1C0F3300221A70FE
S1133A6021E03B1C0F331A781949131C5B009B1887
S1133A709B005C583B1C0F331A781549131C5B00E0
S1133A809B189B00CB1808331B680E49114A081C6D
S1133A90111C221C00F0B2FC3B1C0F333A1C0F32E9
S1133AA0127801321A703B1C0F331B78052BD8D9BE
S1133AB0044A094B101C191C00F0A0FCBD4605B0BB
S1133AC090BDC0467CF1FF1FAC7A0000C07A0000B4
S1133AD000F0FF1FDC7A0000007A000080B582B09D
S1133AE000AF7860064A074B101C191C00F086FCD6
S1133AF0054B802292035A60BD4602B080BDC04689
S1133B007CF1FF1FEC7A000000F10F4080B582B019
S1133B1000AF7860094A0A4B101C191C00F06EFCB7
S1133B20084B802292039A6000220023101C191C67
S1133B3000F052FDBD4602B080BDC0467CF1FF1FBF
S1133B40047B000000F10F4080B584B000AF7860C2
S1133B503B4A3C4B101C191C00F050FC3B1C0F331F
S1133B6000221A7028E0384B1A683B1C0F331B786C
S1133B705B00D3181B889BB23149344A081C111CC2
S1133B801A1C00F03BFC3B1C0F331B787E2B06D821
S1133B902B4A2F4B101C191C00F030FC05E0284A5E
S1133BA02C4B101C191C00F029FC3B1C0F333A1C35
S1133BB00F32127801321A703B1C0F331B785BB240
S1133BC0002BD0DA1E4A244B101C191C00F016FCE2
S1133BD03B1C0F3300221A7028E0204B1A683B1C50
S1133BE00F331B785B00D3181B889BB21449174A08
S1133BF0081C111C1A1C00F001FC3B1C0F331B7821
S1133C007E2B06D80E4A124B101C191C00F0F6FB32
S1133C1005E00B4A0F4B101C191C00F0EFFB3B1C7A
S1133C200F333A1C0F32127801321A703B1C0F33D7
S1133C301B785BB2002BD0DABD4604B080BDC04611
S1133C407CF1FF1F207B00009CFEFF1F2C7B0000EB
S1133C50307B0000007A0000347B000094FAFF1FE0
S1133C6080B584B000AF78603B1C083300221A6032
S1133C703B1C083300225A6078681F493A1C0832FA
S1133C803B1C0833043302F0E6F8031C022B2AD150
S1133C903B1C08331A683B1C08335B6817481849F7
S1133CA000F0ACFB3B1C08331B68181CFDF714FC2C
S1133CB0031C181C1349FCF7F7FE031C0020191CF5
S1133CC000F0DAF93B1C08335B68181CFDF704FCB0
S1133CD0031C181C0B49FCF7E7FE031C0120191CEC
S1133CE000F0CAF905E0054A074B101C191C00F046
S1133CF085FBBD4604B080BD407B00007CF1FF1F06
S1133D00487B00000000C842647B000090B585B089
S1133D1000AF78603B1C083300221A603B1C083358
S1133D2000225A6078681E493A1C08323B1C08334A
S1133D30043302F090F8031C022B27D13B1C0833F8
S1133D401A683B1C08335B681648174900F056FB99
S1133D503B1C08331B68181CFDF7BEFB031C181C16
S1133D601249FCF7A1FE031C1C1C3B1C08335B68B6
S1133D70181CFDF7B1FB031C181C0C49FCF794FE3E
S1133D80031C201C191C00F027FC05E0054A084B05
S1133D90101C191C00F032FBBD4605B090BDC04696
S1133DA0407B00007CF1FF1FD47B00000000C84270
S1133DB0FC7B000080B582B000AFA14B181C00F062
S1133DC097FA031C002B00D136E19D4B181C00F020
S1133DD06BFB031C1A1C9B4B1A709A4B1B78082B09
S1133DE000D1EBE00D2B00D0FAE0974B1B781A1CA6
S1133DF09649002088540133DAB2934B1A70914BE0
S1133E001B78934A101C191C00F09AFA8E4B1B78ED
S1133E10012B00D8C8E0FB1D00221A7010E0FB1D26
S1133E201B78FA1D12788949895C8A4AD154FB1D92
S1133E30FA1D127801321A70FB1D1B78202B0CD04E
S1133E40FB1D1B78814AD35C202B07D9FB1D1B78F3
S1133E507E4AD35C7E2BE2D900E0C046FB1D1B7872
S1133E607C4A0021D154FB1D1B780133794A00217F
S1133E70D1547B1D01221A70774B181C002120227B
S1133E8002F048F80EE0FB1D1B78704AD35C002B4F
S1133E9003D17B1D00221A700EE0FB1DFA1D12785F
S1133EA001321A70FB1D1B78684AD35C202B03D89F
S1133EB0FB1D1B783F2BE6D97B1D1B78012B20D1E2
S1133EC0FB1D1A78614BD318634A101C191C02F0AD
S1133ED06FF8FB1D1F221A7009E0FB1D1B785E4A58
S1133EE00021D154FB1DFA1D1278013A1A70FB1DF2
S1133EF01B78594AD35C202B03D8FB1D1B78002B5D
S1133F00EBD1564B00221A70BB1D00221A7037E009
S1133F10BB1D1A785249131C5B009B189B005B580D
S1133F204C4A101C191C02F04BF8031C002B22D124
S1133F30474A4C4B101C191C00F060FABB1D1A7840
S1133F404749131C5B009B189B00CB1804331B6868
S1133F50002B0CD0BB1D1A784149131C5B009B1825
S1133F609B00CB1804331B683B4A101C98473B4BFF
S1133F7001221A7008E0BB1DBA1D127801321A70B2
S1133F80BB1D1B78052BC3D9344B1B78002B0BD1DD
S1133F902F49354A2F4B081C111C1A1C00F02EFA0D
S1133FA0324B181CFFF748FD294A314B101C191CD1
S1133FB000F024FA244B00221A703DE0224B1B78B7
S1133FC0002B36D0204B1B78013BDAB21E4B1A7003
S1133FD01C4B1B781E4A101C191C00F0B1F928E078
S1133FE0194B1B78002B03D1164B1B78202B1ED0AA
S1133FF0144B1B781F2B1ED9124B1B787E2B1AD8FF
S1134000114B1B783E2B16D80F4B1B781A1C0D49ED
S113401008780E4988540133DAB20B4B1A70094BF5
S11340201B780B4A101C191C00F08AF903E0C046E7
S113403001E0C04600E0C046BD4602B080BDC046B7
S113404070F1FF1F09FAFF1F8DFAFF1F0CFAFF1F03
S11340507CF1FF1F6CFAFF1F4CFAFF1F08FAFF1FC9
S113406000F0FF1F6C7C0000707C0000947C00005A
S11340709C7C00000000000090B583B000AF021CDF
S11340803960FB1D1A703868FFF702F9031C0C1C19
S1134090181C211C174B164AFDF7C6FA031C0C1CEE
S11340A0181C211C144A154BFDF76AFE031C0C1C3A
S11340B0181C211C124A134BFEF75CFA031C0C1C3F
S11340C0181C211C0E4A0F4BFDF7AEFA031C0C1CE6
S11340D0181C211CFFF730F9031CFA1D1278101C60
S11340E0191C00F011F8BD4603B090BDC046C0468F
S11340F0000000000000F03F00000000000000404D
S1134100000000A09999A93F90B583B000AF021CAC
S11341103960FB1D1A70FB1D1B78012B11D0134C49
S1134120124B9B68181CFDF72BFA031C181C3968EA
S1134130FCF7ACFE031C181CFCF79EFC031C23615B
S113414011E00A4C094B9B68181CFDF719FA031C73
S1134150181C3968FCF79AFE031C181CFCF78CFC2D
S1134160031CA361C046BD4603B090BD009003404C
S113417080B500AF0C4B1A688023134005D00A4B5E
S1134180094A126880210A431A60084B1B78DBB283
S1134190FF2B06D0054B1B78DBB20133DAB2034B9D
S11341A01A70BD4680BDC046009003408EFAFF1FC2
S11341B080B500AF2C4A2C492C4BCB5880214902A6
S11341C019432A4BD150284A2749284BC958284B10
S11341D01940264BD150244A2349244BCB588021E3
S11341E049041943214BD1501F4A1F49214BCB5835
S11341F08021890419431F4BD1501F4B00221A60A0
S11342001D4A84230021D1501B4B06221A601A4BED
S1134210194A126840210A431A60174B174A9A60D8
S1134220154B2822DA60144B28225A6100230020FF
S1134230191CFFF721FF00230120191CFFF71CFFA5
S11342400D4B0D4A126808210A431A601220FFF729
S11342507DF90B4BC02292001A60094BC0229200D8
S11342605A60BD4680BDC046007004400410000082
S1134270FFFFFFFC3C100000009003404C1D0000B9
S113428000A0044080B586B000AFF8607A603B1CA3
S11342900A330A1C1A80FB683A1C0A3212889A8074
S11342A0FB6800221A80FB6800225A80FB687A6847
S11342B09A603B1C163300221A800EE0FB689A6851
S11342C03B1C16331B88D31800221A703B1C163370
S11342D03A1C1632128801321A80FB689B883A1CF9
S11342E0163212889A42E9D3BD4606B080BDC04654
S11342F080B582B000AF78607B681A887B685B8881
S11343009A420AD97B689A887B681B88D31A9AB226
S11343107B685B88D3189BB20DE07B685A887B6806
S11343201B889A4206D97B685A887B681B88D31AF3
S11343309BB200E00023181CBD4602B080BDC046FD
S113434080B582B000AF78600A1CFB1C1A707B68D1
S1134350181CFFF7CDFF031C1A1C7B689B889A422C
S113436001D10F4B17E07B689A687B685B88D31890
S1134370FA1C12781A707B685B8801339AB27B68E6
S11343805A807B685A887B689B889A4202D37B68F0
S113439000225A8000231BB2181CBD4602B080BD07
S11343A0FFFF000080B586B000AFF860B960BB1DA8
S11343B01A803B1C163300221A8011E03B1C163372
S11343C01B88BA68D3181B78FA68101C191CFFF7ED
S11343D0B7FF3B1C16333A1C1632128801321A807E
S11343E03A1C1632BB1D12881B889A42E6D300235E
S11343F01BB2181CBD4606B080BDC0460EB480B5C5
S113440085B000AF78603B1C2033FB600E49FA692D
S1134410FB68081C111C1A1C01F014FD0A4B181C23
S113442001F0DCFD031C9BB27968074A081C111CCF
S11344301A1CFFF7B7FF031C181CBD4605B080BC4F
S113444008BC03B01847C0464CF0FF1F80B582B0CB
S113445000AF786039607B68181CFFF749FF031CC4
S1134460002B01D10F4B17E07B689A687B681B888F
S1134470D3181A783B681A707B681B8801339AB288
S11344807B681A807B681A887B689B889A4202D36F
S11344907B6800221A8000231BB2181CBD4602B0A0
S11344A080BDC046FEFF000080B584B000AF7860D8
S11344B07B68181CFFF71CFF031C002B01D1002391
S11344C01AE07B689A687B681B88D2183B1C0F3300
S11344D012781A707B681B8801339AB27B681A8041
S11344E07B681A887B689B889A4202D37B68002287
S11344F01A803B1C0F331B78181CBD4604B080BDCA
S113450080B500AF2D4A2D492D4BCB58802149024F
S113451019432B4BD150294A2849294BC958294BB7
S11345201940274BD150254A2449254BCB5880218B
S113453049041943224BD150204A2049224BCB58DD
S1134540802149041943204BD150204B00221A608A
S11345501E4A84230021D1501C4B00221A601B4B9D
S1134560962252019A60194B2822DA60174B2422B2
S11345705A61164B2822DA61144B24225A62002213
S11345800023101C191C00F027F8104B0F4A126866
S113459008210A431A600E4B8022D2005A600C4B49
S11345A08022D2009A600A4B8022D200DA60084B43
S11345B08022D2001A61BD4680BDC046007004400E
S11345C004100000FFFFFFFC3C10000000800340CB
S11345D000B0044000000000F0B583B000AF786084
S11345E039607868FE218905FCF732FA031C002B38
S11345F003D0FE239B057B6008E078684449FCF700
S113460013FA031C002B01D0414B7B603868FE2158
S11346108905FCF71DFA031C002B03D0FE239B0520
S11346203B6008E038683A49FCF7FEF9031C002BAC
S113463001D0374B3B60374D364B9B68181CFCF759
S11346409FFF061C7868FEF723FE031C0C1C181C35
S1134650211C2C4B2A4AFCF7E7FF031C0C1C181CDA
S1134660211C294A294BFDF78BFB031C0C1C181C2D
S1134670211CFEF761FE031C301C191CFCF706FC10
S1134680031C181CFCF7F8F9031C9BB22B62214B8A
S1134690204A126A9A621F4D1E4B9B68181CFCF735
S11346A06FFF061C3868FEF7F3FD031C0C1C181C76
S11346B0211C144B124AFCF7B7FF031C0C1C181CDA
S11346C0211C114A114BFDF75BFB031C0C1C181C2D
S11346D0211CFEF731FE031C301C191CFCF7D6FB11
S11346E0031C181CFCF7C8F9031C9BB22B61094B73
S11346F0084A12699A61BD4603B0F0BDC046C0467F
S1134700000000000000F03F000000000000004036
S1134710000080BF0080034080B500AF1C4A1C49E4
S11347201C4BCB58C021890119431A4BD1501A4B49
S1134730A02252005A60194BA0225200DA61174B92
S113474000225A61154B00229A61154B144A526992
S113475080210A435A61134B124A526902210A43C7
S11347605A61104B02229A600D4B80229A600E4BC4
S113477000221A700D4B0E4A1A600E4B0E4A1A6034
S11347800E4B0F4A1A600F4B0F4A1A60BD4680BD8C
S1134790007004403810000000D0044000C0044001
S11347A0C0F00F4000F10F4090FAFF1F98FCFF1F6C
S11347B098FAFF1FA0FEFF1F9CFCFF1F9CFEFF1F1B
S11347C098FBFF1F94FAFF1F9CFDFF1F00000000D1
S11347D090B585B000AF78607868FEF727FD031CBC
S11347E00C1C181C211C114B0F4AFDF7C9FA031CA1
S11347F00C1C181C211C0E4A0E4BFDF7BBFE031C9F
S11348000C1C181C211CFEF797FD031CFB600A4CB2
S1134810F868FCF731F9021C80235B00E250BD46C6
S113482005B090BDC046C0460000000080842E4103
S11348300000000060E3764100700340C046C046BB
S113484080B582B002AF064B182200920122019279
S1134850181C00210122042300F004F8BD4680BD89
S113486000127A0080B586B000AF7860081C111C75
S11348701A1CFB1C1870BB1C19707B1C1A70C24BD1
S11348809B79DBB21A1C0C2313409B080DD1BE4B41
S11348909B79DBB21A1C1023134006D0BA4B9B79C8
S11348A0DBB21A1C2023134001D0012373E27A687F
S11348B0B64B9A4201DD21236DE2BB1C1B78002B11
S11348C009D07A68B24B9A4203DD7A68B14B9A42B6
S11348D001DD22235FE2FB1C1B78002B02D0FB1CB2
S11348E001221A707B1C1B785BB2002B04DD7B1C3D
S11348F01B785BB2192B01DD41234CE23B1C2033B6
S11349001B785BB2172B05DD3B1C20331B785BB295
S1134910322B01DD42233EE27B1C1B785BB27868BC
S1134920191CFBF7CFFF031C3B613A699A4B9A426F
S113493003DD3A69994B9A4201DD43232BE27B1C48
S11349401B785BB27868191CFBF7BCFF031C3A1C8C
S11349502032127852B25343FB60FA68904B9A4269
S113496003DDFA688F4B9A4201DD452313E2864A40
S11349703B1C163352781A703B1C16333A1C163201
S113498012783C218A431A707A68874B9A4214DC65
S1134990FB1C1B78DB00DAB2BB1C1B789B00DBB270
S11349A01343DAB23B1C16331B781343DAB23B1CB5
S11349B0163310210A431A7013E0FB1C1B78DB002A
S11349C0DAB2BB1C1B789B00DBB21343DAB23B1C8C
S11349D016331B781343DAB23B1C163320210A43E7
S11349E01A70694B3A1C163212785A707A686F4BF7
S11349F09A4204DC3B1C173300221A7027E07A68C1
S1134A006B4B9A4204DC3B1C173301221A701EE0E4
S1134A107A68684B9A4204DC3B1C173302221A70F2
S1134A2015E07A68644B9A4204DC3B1C173303227A
S1134A301A700CE07A68614B9A4204DC3B1C173311
S1134A4004221A7003E03B1C173305221A704E4AE5
S1134A503B1C163312781A703B1C16333A1C163260
S1134A60117803220A401A703B1C17331B78DB00B1
S1134A70DAB238231340DAB23B1C16331B781343E3
S1134A80DAB23B1C1633802149420A431A703E4B6A
S1134A903A1C163212781A70BB1C1B78002B24D0D7
S1134AA03B1C143300221A800DE0374B9B79DBB298
S1134AB01A1C022313400ED13B1C14333A1C14322B
S1134AC0128801321A803B1C143300215A5E3C4B7D
S1134AD09A42EADD00E0C0462B4B9B79DBB21A1CFC
S1134AE00223134001D1232355E13B1C143300223C
S1134AF01A800DE0244B9B79DBB21A1C102313405F
S1134B000ED03B1C14333A1C1432128801321A8022
S1134B103B1C143300215A5E2A4B9A42EADD00E022
S1134B20C046194B9B79DBB21A1C1023134001D0E9
S1134B30112330E13B1C143300221A800FE0124B86
S1134B409B79DBB21A1C0C2313409B08022B0ED05A
S1134B503B1C14333A1C1432128801321A803B1C59
S1134B60143300215A5E174B9A42E8DD00E0C04638
S1134B70054B9B79DBB21A1C0C2313409B08022BB8
S1134B8022D01A2307E1C0460040064080F0FA0212
S1134B90BFC62D000048E8017F841E0000093D00C7
S1134BA0FF6BDC0200E1F50500127A00D01213005D
S1134BB0A0252600404B4C0080969800002D310122
S1134BC01F4E0000CF070000754B754A5279D2B2D0
S1134BD020210A43D2B25A71714A3B1C163312790E
S1134BE01A703B1C16333A1C163212781F218A4362
S1134BF01A707B1C1B78013BDAB21F231340D9B215
S1134C003B1C16333A1C163212780A431A70644B52
S1134C103A1C163212781A71614A3B1C16335279C7
S1134C201A703B1C16333A1C163212781F218A4321
S1134C301A703B1C20331B78183BDAB21F23134035
S1134C40DAB23B1C16331B781343DAB23B1C16331F
S1134C5040210A431A70524B3A1C163212785A7188
S1134C603B1C143300221A800DE04D4B9B79DBB2C0
S1134C701A1C202313400ED13B1C14333A1C14324B
S1134C80128801321A803B1C143300215A5E454BB2
S1134C909A42EADD00E0C046414B9B79DBB21A1C24
S1134CA02023134001D1162375E03B1C143300224A
S1134CB01A800DE03A4B9B79DBB21A1C4023134057
S1134CC00ED13B1C14333A1C1432128801321A8060
S1134CD03B1C143300215A5E334B9A42EADD00E058
S1134CE0C0462F4B9B79DBB21A1C4023134001D1E1
S1134CF0442350E02A4B1B79DAB21F231340DAB263
S1134D003B1C0B3301321A70254B5B79DAB21F233B
S1134D101340DAB23B1C0A3318321A70204B204A73
S1134D201278D1B23F220A40D2B21A703B1C14331B
S1134D3000221A800FE01A4B9B79DBB21A1C0C2359
S1134D4013409B08032B0ED03B1C14333A1C143223
S1134D50128801321A803B1C143300215A5E114B15
S1134D609A42E8DD00E0C0460D4B9B79DBB21A1C89
S1134D700C2313409B08032B01D01B230BE03B1C8B
S1134D800B331B787868191CFBF79CFD031C3A1C39
S1134D900A3212785343181CBD4606B080BDC04683
S1134DA000400640CF0700009F0F000080B500AF11
S1134DB0244A2449244BCB58F82189011943224B16
S1134DC0D150224BA02252005A65204B802252001F
S1134DD01A651F4B802252005A631D4B80225200D9
S1134DE05A641A4B802252009A60184B8022520057
S1134DF0DA60164B802252001A61144B8022520052
S1134E005A61144BA02252001A62124BA022520083
S1134E105A62104BA02252009A620E4BA0225200FA
S1134E20DA620D4B802292035A610C4BF02212017C
S1134E305A61002000F014F8074B802292039A6014
S1134E40BD4680BD007004403810000000D004400E
S1134E5000B0044000A0044000F10F4040F00F40B7
S1134E6080B582B000AF021CFB1D1A70FB1D1B78BD
S1134E70022B15D002DC012B09D003E0032B18D040
S1134E80042B1FD0134BF02212019A601FE0114B28
S1134E90802252005A600F4BE02212019A6016E001
S1134EA00C4BC02292005A600A4BC02212019A6035
S1134EB00DE0084BE022D2005A60064B802212011A
S1134EC09A6004E0034BF02212015A60C046BD46CA
S1134ED002B080BD40F00F4080B582B000AFFB1D32
S1134EE000221A70064B1B699B08D9B2FB1D0F22C6
S1134EF00A401A70FB1D1B78181CBD4602B080BD09
S1134F0000F10F4080B582B000AFFB1D00221A7083
S1134F100AE0FB1D1A780B4B92000021D150FB1DB7
S1134F20FA1D127801321A70FB1D1B78032BF0D97D
S1134F30054B064A5A60044B07221A60BD4602B06C
S1134F4080BDC046A4FEFF1F10E000E080BB00004F
S1134F5080B582B000AF144B1B68013304D0124BF0
S1134F601B685A1C104B1A60FB1D00221A7014E0B7
S1134F70FB1D1A780D4B9200D358013308D0FB1D4A
S1134F801B780A4A99008A58511C084A9B00995078
S1134F90FB1DFA1D127801321A70FB1D1B78032BBE
S1134FA0E6D9BD4602B080BD50F1FF1FA4FEFF1F2D
S1134FB080B584B000AF78607B681B6A4022191CFE
S1134FC091430A1C7B681A627B685B6A0B22191C7A
S1134FD091430A1C7B685A627B685B6A07221A4306
S1134FE07B685A627B685B6A80221A437B685A62D8
S1134FF0C0467B681A6880231340FAD07B685A6ADB
S11350004023134001D00123A6E03B1C0E330022B1
S11350101A807B68DA6C3B1C0E331A807B689B6CAD
S113502099B23B1C0E333A1C0E3212888A181A802D
S11350307B685B6C99B23B1C0E333A1C0E321288AF
S11350408A181A807B681B6C99B23B1C0E333A1C7D
S11350500E3212888A181A807B68DB6B99B23B1C6B
S11350600E333A1C0E3212888A181A807B689B6BA6
S113507099B23B1C0E333A1C0E3212888A181A80DD
S11350803B1C0E333A1C0E32128852081A803B1C09
S11350900E333A1C0E32128831490A431A803B1CE3
S11350A00E331A887B68DA623B1C0E3300221A80A6
S11350B07B68DA6E3B1C0E331A807B689B6E99B258
S11350C03B1C0E333A1C0E3212888A181A807B68F5
S11350D05B6E99B23B1C0E333A1C0E3212888A184E
S11350E01A807B681B6E99B23B1C0E333A1C0E323D
S11350F012888A181A807B68DB6D99B23B1C0E33C8
S11351003A1C0E3212888A181A807B689B6D99B2F9
S11351103B1C0E333A1C0E3212888A181A803B1C30
S11351200E333A1C0E32128852081A803B1C0E337E
S11351303A1C0E3212880A490A431A803B1C0E3369
S11351401A887B681A637B685B6A8022191C914306
S11351500A1C7B685A620023181CBD4604B080BD3B
S11351600080FFFF80B582B000AF786039603B6893
S11351701B781A1C7B689A603B685B781A1C7B68F6
S1135180DA603B685B881A1C7B689A613B689B8881
S11351901A1C7B68DA613B689B791A1C7B681A626B
S11351A03B68DB791A1C7B685A623B681B7A1A1CC1
S11351B07B681A603B685B7A1A1C7B685A60BD4640
S11351C002B080BD80B584B000AF1F4A1E491F4B9A
S11351D0CB588021090519431C4BD1500F20FEF7F1
S11351E0EBF93B1C54221A703B1C07225A703B1CDF
S11351F000225A803B1C012252425A803B1C5822F6
S11352009A713B1C0422DA713B1C0022DA603B1CBD
S11352105F221A720E4A3B1C101C191CFFF7A2FFD6
S11352200B4B181CFFF7C4FE3B1C18229A713B1C45
S11352300022DA71064A3B1C101C191CFFF792FF6E
S1135240BD4604B080BDC046007004403C10000060
S113525000B0034080B500AFFFF7B4FF144B002249
S11352601A70144A1349144BCB588021090419436A
S1135270114BD150114B181CFFF7AAFA104A842382
S11352805B000321D1500E4B0D4A126801210A43E1
S11352901A600B4B0A4A126802218A431A601620CC
S11352A0FEF754F90F20FEF751F9BD4680BDC04604
S11352B054F1FF1F007004403C10000050C3000074
S11352C00070034080B500AF0A4A86235B000121C9
S11352D0D150094B80225A60084B01221A70084BA6
S11352E0074AD26810218A43DA60054B4D221A60BE
S11352F0BD4680BD00700340C0F00F4054F1FF1F55
S113530000B0034080B582B000AF754B1B78022B10
S11353101ED002DC012B09D003E0032B2AD0042B7E
S113532053D0704B1A69FB1D1A70D6E06D4B1B6984
S11353309AB26D4B1A806B4B6A4AD26810218A4329
S1135340DA60684B4C221A60654B02221A70C4E082
S1135350644B1B699AB2644B5A80624B614AD268AF
S113536010210A43DA605F4B44221A605C4B03222B
S11353701A70B2E05B4B1B699AB25C4B1A805C4BAF
S113538002225A60FB1D00221A7004E0FB1DFA1D64
S1135390127801321A70FB1D1B78312BF6D9554B4C
S11353A080229A60544B00221A70544B00221A70C7
S11353B04B4B04221A704B4B4A4AD26810210A43C1
S11353C0DA60484B46221A6087E04B4B1B78DBB20D
S11353D0DBB25BB2002B42DB484B1B78DBB2002B09
S11353E011D1474B1A68444B1B78DBB25B00D218CF
S11353F03C4B1B699BB213803A4B47221A603F4BCC
S113540001221A7068E03F4B1A683B4B1B78DBB2F1
S11354105B00D218334B1B699BB21380314B46227D
S11354201A60364B00221A70334B1B78DBB20133FF
S1135430DAB2314B1A702E4B02229A60FB1D002205
S11354401A7004E0FB1DFA1D127801321A70FB1D5C
S11354501B78312BF6D9264B02225A603CE0244BB0
S113546002225A60FB1D00221A7004E0FB1DFA1D83
S1135470127801321A70FB1D1B78312BF6D91C4BA4
S113548002229A60164B00221A701F4B1B78DBB263
S1135490002B0FD11C4B01221A70194B1B4A1A60A6
S11354A0184B1B4A1A601B4B1B4A1A601B4B1C4AA5
S11354B01A600EE0144B00221A70114B164A1A603F
S11354C0104B174A1A60134B104A1A60134B104AB8
S11354D01A60144B01221A70C046BD4602B080BD4A
S11354E054F1FF1F00B00340B4FEFF1FB8FEFF1FBE
S11354F000F10F40C0F00F4055F1FF1F56F1FF1FA0
S113550098FCFF1FA0FEFF1F90FAFF1F98FBFF1FD0
S11355109CFDFF1F9CFEFF1F98FAFF1F94FAFF1FBC
S11355209CFCFF1F4CF1FF1F90B583B000AF021C21
S1135530FB1D1A70FB1D1B78002B21D1284B1B88E7
S11355409BB2181CFCF71CF8031C181CFDF7A0FEEA
S1135550031C0C1C181C211C1E4B1D4AFCF710FCC0
S1135560031C0C1C181C211C1B4A1C4BFCF75CF86C
S1135570031C0C1C181C211CFDF7DEFE031C20E080
S1135580174B5B889BB2181CFBF7FAFF031C181C13
S1135590FDF77EFE031C0C1C181C211C0D4B0C4A31
S11355A0FCF7EEFB031C0C1C181C211C0A4A0B4BB9
S11355B0FCF73AF8031C0C1C181C211CFDF7BCFE5C
S11355C0031C181CBD4603B090BDC046C046C0466F
S11355D00000000000FE9FC0000000000000F03F3B
S11355E0B4FEFF1FC046C04680B500AFFFF728F9E0
S11355F0FFF788FCFFF7DAFBFEF7DAFDFEF780FF22
S1135600FFF728FEFFF788F8FEF706FAFDF7F4FF28
S1135610054B802292039A6000220023101C191C5F
S1135620FEF7DAFFBD4680BD00F10F4080B500AF44
S1135630FEF74AF8FEF7BEFBBD4680BD0000000041
S1135640F0B5D7B000AF972040003B1801221A8074
S1135650AB2149007B1800221A8096225200BB1805
S113566001221A80B24C3B1900221A70FB1DFF3331
S113567000221A700023A8204000C01903600023F0
S113568094214900C9190B60A24CA14B90225200ED
S1135690D21913605460A74BAC246400E419E218D7
S11356A0A54B111C1A1C80235B00081C111C1A1C1E
S11356B000F075FC974C964B8C204000C019036099
S11356C04460954B954C88214900C9190B604C6086
S11356D0934B944C84225200D21913605460A72433
S11356E064003B1900221A80FFF77EFF55E054E066
S11356F0924B1A6980239B01134003D08C483B18BA
S113570002221A70A72149007B1800221A8012E095
S1135710FFF7E2FB031C1A1C08231340DAB2FB1D3B
S1135720FF331A70A7225200BB18A72464003A1949
S1135730128801321A80A72040003B181B88132BC3
S1135740E6D9972149007B181B88002B0AD0FB1D42
S1135750FF331B78DBB27A497A4A081C111C1A1CE5
S1135760FEF74CFEFB1DFF331B78DBB2082B04D184
S11357706F4ABB1801221A700FE0FB1DFF331B7820
S1135780DBB2002B09D16A4C3B191B78DBB2012B2D
S113579003D167483B1802221A7065497B181B78AD
S11357A0DBB2012BA4D9624ABB1800221A70AB24C5
S11357B064003B1901221A80962040003B18012204
S11357C01A80A62149007B1800221A80A5225200C3
S11357D0BB1800221A805C4C3B1900221A70504BF3
S11357E0504C98204000C019036044600120FFF72A
S11357F09BFE031C181CFDF74BFD031C0C1C181C02
S1135800211C494A494BFBF70FFF031C0C1C181CB5
S1135810211C90246400E41922686368FCF7AAFE42
S1135820031C0C1C84204000C019036044601AE26D
S1135830FFF7FCFEFFF750FB031C5B08DBB21A1CEE
S113584003231340022B00D1E5E0032B00D1D4E164
S1135850012B00D17CE0394B1A6980239B01134052
S113586004D03A4B802252005A6003E0374B802226
S113587052009A60314B1A6980239B02134004D072
S1135880324B802212015A6003E0304B8022120115
S11358909A60FFF721FB031C1A1C0123134004D058
S11358A02A4B802292005A6003E0284B8022920007
S11358B09A60FFF711FB031C1A1C0823134004D041
S11358C0224B8022D2005A6003E0204B8022D20077
S11358D09A60AB2149007B18AB2464003A19128802
S11358E01A80A62040003B18A62149007A18128885
S11358F01A80A5225200BB18A52464003A19128804
S11359001A8011483B1810497A1812781A70AAE1C3
S1135910000000000000F03F000000000000F0BFA5
S11359200000000000000000000000000000E03F54
S113593007010000A8FEFFFFB07C000080F00F40CC
S11359407CF1FF1FA07C00004901000040F00F40E3
S1135950C94B1B68132B12D9C74B00221A600020B5
S1135960FFF7E2FD031C0020191CFEF785FB012054
S1135970FFF7DAFD031C0120191CFEF77DFBBE4B6B
S11359805B687C2B1ED9BC4B00225A60A8225200B3
S1135990D21913680133A8246400E4192360A820F1
S11359A04000C0190368042B04D90023A82149002E
S11359B0C9190B60A8225200D2191368DBB2181C53
S11359C0FFF74EFA00220023101C191CFEF704FEF8
S11359D0AA4B802292039A60AB2464003B19AB204B
S11359E040003A1812881A80A62149007B18A62480
S11359F064003A1912881A80A52040003B18A5219A
S1135A0049007A1812881A809D4ABB189C4C3A198E
S1135A1012781A7027E1962040003B181B88002B4F
S1135A2003D0964B802292035A60934BDA68A621E6
S1135A3049007B181B889A4200D896E0A5225200A0
S1135A40BB181B888F4AAC246400E419A2185B01BC
S1135A50D3181D685E680020FFF766FD031C181C40
S1135A60FDF716FC031C0C1C281C311C1A1C231CDF
S1135A70FBF7DAFD031C0C1CA0204000C0190360D6
S1135A804460A52149007B181B887E4AAC2464002D
S1135A90E419A2185B01D31808335C681B68181C4E
S1135AA0211C84246400E41922686368FCF762FD05
S1135AB0031C0C1C181C211C88246400E419226893
S1135AC06368FCF757FD031C0C1C9C204000C019A4
S1135AD003604460A52149007B181B88694AAC24F3
S1135AE06400E419A2185B01D31810335C681B68C6
S1135AF0181C211C84246400E41922686368FCF7E0
S1135B0039FD031C0C1C181C211C8C246400E41992
S1135B1022686368FCF72EFD031C0C1C98204000CF
S1135B20C01903604460A52149007B181988A62286
S1135B305200BB18534AAC246400E419A01818227C
S1135B40490141188A1812881A804B4B0022DA60E6
S1135B50A52040003B18A52149007A18128801327B
S1135B601A80474ABB1801221A70A52464003B1905
S1135B701B885A1E434BAC204000C019C11818237F
S1135B8052018A18D3181B88002B0CD13B4B80225E
S1135B9092039A603A497B1800221A70AB22520091
S1135BA0BB1800221A80364C3B191B78002B59D0A5
S1135BB0A0225200D21910685168FDF7BDFB031CE6
S1135BC00020191CFEF758FA9C235B00DB191868A7
S1135BD05968FDF7B1FB041C98225200D2191068D1
S1135BE05168FDF7A9FB031C201C191CFEF7F4FCEB
S1135BF0234C3B1900221A7034E01F4B1B68642BA2
S1135C0011D9214B1B78DBB2012B0CD11A4B00228A
S1135C101A601D4B00221A7000F03AF8031C9420FD
S1135C204000C0190360AB2149007B18AB24640019
S1135C303A1912881A80A62040003B18A621490070
S1135C407A1812881A80A5225200BB18A524640071
S1135C503A1912881A800A483B1809497A181278A6
S1135C601A7000E0C046AB225200BB181B88002B00
S1135C7000D0DDE53BE5C046A4FEFF1F00F10F4068
S1135C8049010000A8FEFFFF4CF1FF1FC046C046BB
S1135C9080B5684FBD4400AF002387208000C01941
S1135CA00360002383218900C9190B6001235B422F
S1135CB082229200D2191360002381208000C0192F
S1135CC003605D4B80218900C9190B605B4B842202
S1135CD09200D21913600A2387208000C019036040
S1135CE08BE0574B1A6887218900C9190B685B0040
S1135CF0D3181B889BB2191C4E4B88229200D219D0
S1135D00D31887208000C01902689200D1508721DF
S1135D108900C9190B68022B1CDD464B88229200AE
S1135D20D219D31887208000C01902689200D25873
S1135D3087218900C9190B68991E3E4B8820800071
S1135D40C019C3188900CB58D31A85218900C919F1
S1135D500B6015E0374B88229200D219D3188720A4
S1135D608000C01902689200D258324B8821890001
S1135D70C919CB181B68D31A85229200D219136053
S1135D8085208000C0190368002B05DD852189006A
S1135D90C9190868FBF7A0FB264B88229200D21988
S1135DA0D31887208000C01902689200D258842139
S1135DB08900C9190B689A4216DA1E4B8822920090
S1135DC0D219D31887208000C01902689200D358D2
S1135DD084218900C9190B6087229200D2191368A3
S1135DE086208000C019036087218900C9190B68C7
S1135DF0013387229200D219136087208000C019D2
S1135E000368772B00DC6CE786218900C9190868D0
S1135E10FBF762FB031C83229200D21913608320D8
S1135E208000C0190368181CBD4688239B009D444C
S1135E3080BDC046E0FDFFFF0000FA438813000068
S1135E409CFEFF1F10B50C1C0121131C4942221C8F
S1135E5001F05CF910BD0EB403B503AA08CA191CFD
S1135E60019200F023F802B008BC03B0184700B553
S1135E70012A0DD0022A15D00021002A13D103686B
S1135E8019780133002908D10122426051420AE005
S1135E904368002B03D10368013B036003E0002245
S1135EA0426000E04168081C00BD00001FB50C1CE6
S1135EB0131C029000280BD00278002A08D000207E
S1135EC00390009002A9221C034800F089FD01E020
S1135ED00121484204B010BD6F5E000038B5051CB6
S1135EE001F044FC01F028FC084C2368002B02D08C
S1135EF0984700202060064C2168002902D088477A
S1135F0000222260281CFDF717FB38BD58F1FF1F43
S1135F105CF1FF1F10B5041C00F002F8201C10BD3A
S1135F2030B5C9B2031C1F2A31D94442032323408C
S1135F3005D0D21AC51801700130A842FBD100293E
S1135F4005D00D060C042C430B02214319435409BC
S1135F50031C002C0ED0251C013D1960596099606A
S1135F60D960196159619961D9612033002DF3D148
S1135F706301C318D006400F07D0041C1D1C013C4C
S1135F8002C5002CFBD180001B18032422409D185D
S1135F90002A03D019700133AB42FBD130BD10B5D8
S1135FA00023934203D0CC5CC4540133F9E710BD01
S1135FB000B50023CA5CC2540133002AFAD100BDE3
S1135FC000B503780A78934204D1002B04D0013041
S1135FD00131F6E7981A00E0181C00BD00B5431E15
S1135FE001331A78002AFBD1181A00BDF0B589B024
S1135FF001901F1C0EAB0391079202901A78081CA3
S113600001990FAC01380026049225780670B1423C
S113601017D1119BB34214D1049B002B01D06F2DD7
S11360202FD0642D02D0692D00D0A8E0022F02D118
S1136030039802389FE0012F00D0A0E003980238B3
S113604094E0692D0ED004D8582D16D0642D1CD19F
S113605008E0752D04D0782D0FD06F2D15D110E0E8
S1136060002712E0019A002A0FDA80242606B242A1
S11360700DD051420191029109E000273E1C1024E9
S113608007E000273E1C082403E0002600E0012668
S11360900A240090002006900298211CFAF708FCBC
S11360A002980591211CFAF7BFFB059A0290092A70
S11360B001D8303205E0059A3732782D01D1059A9E
S11360C057320098069B02990138D2B200900270B0
S11360D00133002901D00693DEE7011C082C0BD103
S11360E00498002808D0302A06D00B1C013B30222B
S11360F000931A70069B0233079802280FD1002ED2
S113610001D1002F02D0109901391091109A1192E7
S1136110102C04D10498002801D0023A119203995A
S11361200098119A091A8918164A914226DC009996
S1136130CA181199121A8A4203DA013830220270FD
S1136140F5E7102C0AD1049C002C07D0019B002BEE
S113615004D0421E3021023815700170002E02D086
S113616001382D2108E0012F02D101382B2103E051
S1136170022F04D101382021017000E0002009B071
S1136180F0BDC046FD010000F0B5BB4C1D1CA5448C
S11361906B460D914A33202100260C9019700B9206
S11361A005960B980278002A01D100F00EFC0B989A
S11361B0252101F0AEF80E90002813D10B98FFF7BB
S11361C00DFF0599021C08180590002A01D100F062
S11361D0FCFB0D980B990C9FB847002801D000F0E8
S11361E0F4FB00E10E9F0B9C05993A1B8B18059359
S11361F0002A06D00D980B990C9EB047002800D1B8
S1136200F1E00E980E9A477801323B1E252B06D1F9
S11362100230002201210B900792069172E00027C0
S1136220012408970A9706942B2B00D1C6E306DCB9
S1136230202B0AD0232B14D101210891C2E32D2B4A
S113624000D1B9E3302B0CD105E00A9B012B00D11E
S1136250B8E30226B3E3069B002B00D1B2E3022489
S1136260AFE3171C2A2B00D097E3281D2D68079550
S1136270002D03DA6C420021079406917B780132E9
S1136280051C079F7D4EB74200DD78E32E2B00D01E
S1136290CDE05378541C00262A2B00D0BAE02E6897
S11362A09378F143C80F043502321C1C4C3C002186
S11362B0202C00D8BEE0DFB2662B00D1F5E000DC74
S11362C0C2E06F2B00D1E5E000DCCDE0732B00D100
S11362D0FBE000DDDAE0702B00D0FFE0012478273A
S11362E008260321089401320B92672F00D900E19C
S11362F0652F00D327E1582F00D115E107D8252FAA
S113630000D0EDE01EAC2770099501251DE0632F38
S113631000D12EE3642F00D031E3281D09902868B2
S1136320032900D0F7E0089A079900920291019797
S113633003969EA9069A0A9BFFF758FE041C002C9C
S113634000D11CE34E4E6E44351B069E002E3CD0FD
S11363502020022E00D130206B464A331870227858
S11363602B2A04D02D2A02D02E1C202A0BD12E1C1D
S1136370302808D10D98211C01220C9EB04700281A
S113638031D001346E1E069902290ED1612F01D03D
S1136390412F0AD1012E26DD0D98211C02220C9FCB
S11363A0B84700281FD0023E02342F1C079DAF427D
S11363B009DA69460D984A3101220C9DA847002844
S11363C011D00137F2E7351C00E02F1C002D06D058
S11363D0211C0D982A1C0C9CA047002803D0069869
S11363E0002812D10EE0012253420593EDE26946E2
S11363F04B3120240D9801220C9B0C7098470028E7
S1136400F1D00137079B9F42F1DB059AD619059617
S1136410099DC6E61A1C303A092A05D80A23734393
S113642001349E182378F5E7221C01203DE700265D
